{"abi":[{"inputs":[],"stateMutability":"nonpayable","type":"constructor"},{"inputs":[],"name":"enter","outputs":[],"stateMutability":"payable","type":"function"},{"inputs":[],"name":"getPlayers","outputs":[{"internalType":"address[]","name":"","type":"address[]"}],"stateMutability":"view","type":"function"},{"inputs":[],"name":"manager","outputs":[{"internalType":"address","name":"","type":"address"}],"stateMutability":"view","type":"function"},{"inputs":[],"name":"pickWinner","outputs":[],"stateMutability":"payable","type":"function"},{"inputs":[{"internalType":"uint256","name":"","type":"uint256"}],"name":"players","outputs":[{"internalType":"address","name":"","type":"address"}],"stateMutability":"view","type":"function"}],"devdoc":{"kind":"dev","methods":{},"version":1},"evm":{"assembly":"    /* \"Lottery.sol\":25:945  contract Lottery {... */\n  mstore(0x40, 0x80)\n    /* \"Lottery.sol\":107:158  constructor() {... */\n  callvalue\n  dup1\n  iszero\n  tag_1\n  jumpi\n  0x00\n  dup1\n  revert\ntag_1:\n  pop\n    /* \"Lottery.sol\":141:151  msg.sender */\n  caller\n    /* \"Lottery.sol\":131:138  manager */\n  0x00\n  dup1\n    /* \"Lottery.sol\":131:151  manager = msg.sender */\n  0x0100\n  exp\n  dup2\n  sload\n  dup2\n  0xffffffffffffffffffffffffffffffffffffffff\n  mul\n  not\n  and\n  swap1\n  dup4\n  0xffffffffffffffffffffffffffffffffffffffff\n  and\n  mul\n  or\n  swap1\n  sstore\n  pop\n    /* \"Lottery.sol\":25:945  contract Lottery {... */\n  dataSize(sub_0)\n  dup1\n  dataOffset(sub_0)\n  0x00\n  codecopy\n  0x00\n  return\nstop\n\nsub_0: assembly {\n        /* \"Lottery.sol\":25:945  contract Lottery {... */\n      mstore(0x40, 0x80)\n      jumpi(tag_1, lt(calldatasize, 0x04))\n      shr(0xe0, calldataload(0x00))\n      dup1\n      0x481c6a75\n      eq\n      tag_2\n      jumpi\n      dup1\n      0x5d495aea\n      eq\n      tag_3\n      jumpi\n      dup1\n      0x8b5b9ccc\n      eq\n      tag_4\n      jumpi\n      dup1\n      0xe97dcb62\n      eq\n      tag_5\n      jumpi\n      dup1\n      0xf71d96cb\n      eq\n      tag_6\n      jumpi\n    tag_1:\n      0x00\n      dup1\n      revert\n        /* \"Lottery.sol\":48:70  address public manager */\n    tag_2:\n      callvalue\n      dup1\n      iszero\n      tag_7\n      jumpi\n      0x00\n      dup1\n      revert\n    tag_7:\n      pop\n      tag_8\n      tag_9\n      jump\t// in\n    tag_8:\n      mload(0x40)\n      tag_10\n      swap2\n      swap1\n      tag_11\n      jump\t// in\n    tag_10:\n      mload(0x40)\n      dup1\n      swap2\n      sub\n      swap1\n      return\n        /* \"Lottery.sol\":518:733  function pickWinner() public payable restricted {... */\n    tag_3:\n      tag_12\n      tag_13\n      jump\t// in\n    tag_12:\n      stop\n        /* \"Lottery.sol\":851:943  function getPlayers() public view returns (address[] memory) {... */\n    tag_4:\n      callvalue\n      dup1\n      iszero\n      tag_14\n      jumpi\n      0x00\n      dup1\n      revert\n    tag_14:\n      pop\n      tag_15\n      tag_16\n      jump\t// in\n    tag_15:\n      mload(0x40)\n      tag_17\n      swap2\n      swap1\n      tag_18\n      jump\t// in\n    tag_17:\n      mload(0x40)\n      dup1\n      swap2\n      sub\n      swap1\n      return\n        /* \"Lottery.sol\":164:318  function enter() public payable {... */\n    tag_5:\n      tag_19\n      tag_20\n      jump\t// in\n    tag_19:\n      stop\n        /* \"Lottery.sol\":76:100  address[] public players */\n    tag_6:\n      callvalue\n      dup1\n      iszero\n      tag_21\n      jumpi\n      0x00\n      dup1\n      revert\n    tag_21:\n      pop\n      tag_22\n      0x04\n      dup1\n      calldatasize\n      sub\n      dup2\n      add\n      swap1\n      tag_23\n      swap2\n      swap1\n      tag_24\n      jump\t// in\n    tag_23:\n      tag_25\n      jump\t// in\n    tag_22:\n      mload(0x40)\n      tag_26\n      swap2\n      swap1\n      tag_11\n      jump\t// in\n    tag_26:\n      mload(0x40)\n      dup1\n      swap2\n      sub\n      swap1\n      return\n        /* \"Lottery.sol\":48:70  address public manager */\n    tag_9:\n      0x00\n      dup1\n      sload\n      swap1\n      0x0100\n      exp\n      swap1\n      div\n      0xffffffffffffffffffffffffffffffffffffffff\n      and\n      dup2\n      jump\t// out\n        /* \"Lottery.sol\":518:733  function pickWinner() public payable restricted {... */\n    tag_13:\n        /* \"Lottery.sol\":793:800  manager */\n      0x00\n      dup1\n      sload\n      swap1\n      0x0100\n      exp\n      swap1\n      div\n      0xffffffffffffffffffffffffffffffffffffffff\n      and\n        /* \"Lottery.sol\":779:800  msg.sender == manager */\n      0xffffffffffffffffffffffffffffffffffffffff\n      and\n        /* \"Lottery.sol\":779:789  msg.sender */\n      caller\n        /* \"Lottery.sol\":779:800  msg.sender == manager */\n      0xffffffffffffffffffffffffffffffffffffffff\n      and\n      eq\n        /* \"Lottery.sol\":771:827  require(msg.sender == manager, \"You must be a manager.\") */\n      tag_28\n      jumpi\n      mload(0x40)\n      0x08c379a000000000000000000000000000000000000000000000000000000000\n      dup2\n      mstore\n      0x04\n      add\n      tag_29\n      swap1\n      tag_30\n      jump\t// in\n    tag_29:\n      mload(0x40)\n      dup1\n      swap2\n      sub\n      swap1\n      revert\n    tag_28:\n        /* \"Lottery.sol\":576:586  uint index */\n      0x00\n        /* \"Lottery.sol\":600:607  players */\n      0x01\n        /* \"Lottery.sol\":600:614  players.length */\n      dup1\n      sload\n      swap1\n      pop\n        /* \"Lottery.sol\":589:597  random() */\n      tag_32\n        /* \"Lottery.sol\":589:595  random */\n      tag_33\n        /* \"Lottery.sol\":589:597  random() */\n      jump\t// in\n    tag_32:\n        /* \"Lottery.sol\":589:614  random() % players.length */\n      tag_34\n      swap2\n      swap1\n      tag_35\n      jump\t// in\n    tag_34:\n        /* \"Lottery.sol\":576:614  uint index = random() % players.length */\n      swap1\n      pop\n        /* \"Lottery.sol\":641:648  players */\n      0x01\n        /* \"Lottery.sol\":649:654  index */\n      dup2\n        /* \"Lottery.sol\":641:655  players[index] */\n      dup2\n      sload\n      dup2\n      lt\n      tag_36\n      jumpi\n      mstore(0x00, 0x4e487b7100000000000000000000000000000000000000000000000000000000)\n      mstore(0x04, 0x32)\n      revert(0x00, 0x24)\n    tag_36:\n      swap1\n      0x00\n      mstore\n      keccak256(0x00, 0x20)\n      add\n      0x00\n      swap1\n      sload\n      swap1\n      0x0100\n      exp\n      swap1\n      div\n      0xffffffffffffffffffffffffffffffffffffffff\n      and\n        /* \"Lottery.sol\":633:665  payable(players[index]).transfer */\n      0xffffffffffffffffffffffffffffffffffffffff\n      and\n        /* \"Lottery.sol\":633:690  payable(players[index]).transfer((address(this)).balance) */\n      0x08fc\n        /* \"Lottery.sol\":675:679  this */\n      address\n        /* \"Lottery.sol\":666:689  (address(this)).balance */\n      0xffffffffffffffffffffffffffffffffffffffff\n      and\n      balance\n        /* \"Lottery.sol\":633:690  payable(players[index]).transfer((address(this)).balance) */\n      swap1\n      dup2\n      iszero\n      mul\n      swap1\n      mload(0x40)\n      0x00\n      mload(0x40)\n      dup1\n      dup4\n      sub\n      dup2\n      dup6\n      dup9\n      dup9\n      call\n      swap4\n      pop\n      pop\n      pop\n      pop\n      iszero\n      dup1\n      iszero\n      tag_39\n      jumpi\n      returndatasize\n      0x00\n      dup1\n      returndatacopy\n      revert(0x00, returndatasize)\n    tag_39:\n      pop\n        /* \"Lottery.sol\":724:725  0 */\n      0x00\n        /* \"Lottery.sol\":710:726  new address[](0) */\n      0xffffffffffffffff\n      dup2\n      gt\n      iszero\n      tag_40\n      jumpi\n      mstore(0x00, 0x4e487b7100000000000000000000000000000000000000000000000000000000)\n      mstore(0x04, 0x41)\n      revert(0x00, 0x24)\n    tag_40:\n      mload(0x40)\n      swap1\n      dup1\n      dup3\n      mstore\n      dup1\n      0x20\n      mul\n      0x20\n      add\n      dup3\n      add\n      0x40\n      mstore\n      dup1\n      iszero\n      tag_41\n      jumpi\n      dup2\n      0x20\n      add\n      0x20\n      dup3\n      mul\n      dup1\n      calldatasize\n      dup4\n      calldatacopy\n      dup1\n      dup3\n      add\n      swap2\n      pop\n      pop\n      swap1\n      pop\n    tag_41:\n      pop\n        /* \"Lottery.sol\":700:707  players */\n      0x01\n        /* \"Lottery.sol\":700:726  players = new address[](0) */\n      swap1\n      dup1\n      mload\n      swap1\n      0x20\n      add\n      swap1\n      tag_42\n      swap3\n      swap2\n      swap1\n      tag_43\n      jump\t// in\n    tag_42:\n      pop\n        /* \"Lottery.sol\":837:838  _ */\n      pop\n        /* \"Lottery.sol\":518:733  function pickWinner() public payable restricted {... */\n      jump\t// out\n        /* \"Lottery.sol\":851:943  function getPlayers() public view returns (address[] memory) {... */\n    tag_16:\n        /* \"Lottery.sol\":894:910  address[] memory */\n      0x60\n        /* \"Lottery.sol\":929:936  players */\n      0x01\n        /* \"Lottery.sol\":922:936  return players */\n      dup1\n      sload\n      dup1\n      0x20\n      mul\n      0x20\n      add\n      mload(0x40)\n      swap1\n      dup2\n      add\n      0x40\n      mstore\n      dup1\n      swap3\n      swap2\n      swap1\n      dup2\n      dup2\n      mstore\n      0x20\n      add\n      dup3\n      dup1\n      sload\n      dup1\n      iszero\n      tag_45\n      jumpi\n      0x20\n      mul\n      dup3\n      add\n      swap2\n      swap1\n      0x00\n      mstore\n      keccak256(0x00, 0x20)\n      swap1\n    tag_46:\n      dup2\n      0x00\n      swap1\n      sload\n      swap1\n      0x0100\n      exp\n      swap1\n      div\n      0xffffffffffffffffffffffffffffffffffffffff\n      and\n      0xffffffffffffffffffffffffffffffffffffffff\n      and\n      dup2\n      mstore\n      0x20\n      add\n      swap1\n      0x01\n      add\n      swap1\n      dup1\n      dup4\n      gt\n      tag_46\n      jumpi\n    tag_45:\n      pop\n      pop\n      pop\n      pop\n      pop\n      swap1\n      pop\n        /* \"Lottery.sol\":851:943  function getPlayers() public view returns (address[] memory) {... */\n      swap1\n      jump\t// out\n        /* \"Lottery.sol\":164:318  function enter() public payable {... */\n    tag_20:\n        /* \"Lottery.sol\":226:235  .01 ether */\n      0x2386f26fc10000\n        /* \"Lottery.sol\":214:223  msg.value */\n      callvalue\n        /* \"Lottery.sol\":214:235  msg.value > .01 ether */\n      gt\n        /* \"Lottery.sol\":206:277  require(msg.value > .01 ether, \"Value must be greater than 0.1 ether.\") */\n      tag_48\n      jumpi\n      mload(0x40)\n      0x08c379a000000000000000000000000000000000000000000000000000000000\n      dup2\n      mstore\n      0x04\n      add\n      tag_49\n      swap1\n      tag_50\n      jump\t// in\n    tag_49:\n      mload(0x40)\n      dup1\n      swap2\n      sub\n      swap1\n      revert\n    tag_48:\n        /* \"Lottery.sol\":287:294  players */\n      0x01\n        /* \"Lottery.sol\":300:310  msg.sender */\n      caller\n        /* \"Lottery.sol\":287:311  players.push(msg.sender) */\n      swap1\n      dup1\n      0x01\n      dup2\n      sload\n      add\n      dup1\n      dup3\n      sstore\n      dup1\n      swap2\n      pop\n      pop\n      0x01\n      swap1\n      sub\n      swap1\n      0x00\n      mstore\n      keccak256(0x00, 0x20)\n      add\n      0x00\n      swap1\n      swap2\n      swap1\n      swap2\n      swap1\n      swap2\n      0x0100\n      exp\n      dup2\n      sload\n      dup2\n      0xffffffffffffffffffffffffffffffffffffffff\n      mul\n      not\n      and\n      swap1\n      dup4\n      0xffffffffffffffffffffffffffffffffffffffff\n      and\n      mul\n      or\n      swap1\n      sstore\n      pop\n        /* \"Lottery.sol\":164:318  function enter() public payable {... */\n      jump\t// out\n        /* \"Lottery.sol\":76:100  address[] public players */\n    tag_25:\n      0x01\n      dup2\n      dup2\n      sload\n      dup2\n      lt\n      tag_52\n      jumpi\n      0x00\n      dup1\n      revert\n    tag_52:\n      swap1\n      0x00\n      mstore\n      keccak256(0x00, 0x20)\n      add\n      0x00\n      swap2\n      pop\n      sload\n      swap1\n      0x0100\n      exp\n      swap1\n      div\n      0xffffffffffffffffffffffffffffffffffffffff\n      and\n      dup2\n      jump\t// out\n        /* \"Lottery.sol\":324:512  function random() private view returns (uint) { // difference between random and pseudo random... */\n    tag_33:\n        /* \"Lottery.sol\":364:368  uint */\n      0x00\n        /* \"Lottery.sol\":466:481  block.timestamp */\n      timestamp\n        /* \"Lottery.sol\":483:493  msg.sender */\n      caller\n        /* \"Lottery.sol\":495:502  players */\n      0x01\n        /* \"Lottery.sol\":449:503  abi.encodePacked(block.timestamp, msg.sender, players) */\n      add(0x20, mload(0x40))\n      tag_55\n      swap4\n      swap3\n      swap2\n      swap1\n      tag_56\n      jump\t// in\n    tag_55:\n      mload(0x40)\n      0x20\n      dup2\n      dup4\n      sub\n      sub\n      dup2\n      mstore\n      swap1\n      0x40\n      mstore\n        /* \"Lottery.sol\":439:504  keccak256(abi.encodePacked(block.timestamp, msg.sender, players)) */\n      dup1\n      mload\n      swap1\n      0x20\n      add\n      keccak256\n        /* \"Lottery.sol\":434:505  uint(keccak256(abi.encodePacked(block.timestamp, msg.sender, players))) */\n      0x00\n      shr\n        /* \"Lottery.sol\":427:505  return uint(keccak256(abi.encodePacked(block.timestamp, msg.sender, players))) */\n      swap1\n      pop\n        /* \"Lottery.sol\":324:512  function random() private view returns (uint) { // difference between random and pseudo random... */\n      swap1\n      jump\t// out\n    tag_43:\n      dup3\n      dup1\n      sload\n      dup3\n      dup3\n      sstore\n      swap1\n      0x00\n      mstore\n      keccak256(0x00, 0x20)\n      swap1\n      dup2\n      add\n      swap3\n      dup3\n      iszero\n      tag_57\n      jumpi\n      swap2\n      0x20\n      mul\n      dup3\n      add\n    tag_58:\n      dup3\n      dup2\n      gt\n      iszero\n      tag_59\n      jumpi\n      dup3\n      mload\n      dup3\n      exp(0x0100, 0x00)\n      dup2\n      sload\n      dup2\n      0xffffffffffffffffffffffffffffffffffffffff\n      mul\n      not\n      and\n      swap1\n      dup4\n      0xffffffffffffffffffffffffffffffffffffffff\n      and\n      mul\n      or\n      swap1\n      sstore\n      pop\n      swap2\n      0x20\n      add\n      swap2\n      swap1\n      0x01\n      add\n      swap1\n      jump(tag_58)\n    tag_59:\n    tag_57:\n      pop\n      swap1\n      pop\n      tag_60\n      swap2\n      swap1\n      tag_61\n      jump\t// in\n    tag_60:\n      pop\n      swap1\n      jump\t// out\n    tag_61:\n    tag_62:\n      dup1\n      dup3\n      gt\n      iszero\n      tag_63\n      jumpi\n      0x00\n      dup2\n      0x00\n      swap1\n      sstore\n      pop\n      0x01\n      add\n      jump(tag_62)\n    tag_63:\n      pop\n      swap1\n      jump\t// out\n        /* \"#utility.yul\":7:146   */\n    tag_65:\n      0x00\n        /* \"#utility.yul\":91:97   */\n      dup2\n        /* \"#utility.yul\":78:98   */\n      calldataload\n        /* \"#utility.yul\":69:98   */\n      swap1\n      pop\n        /* \"#utility.yul\":107:140   */\n      tag_67\n        /* \"#utility.yul\":134:139   */\n      dup2\n        /* \"#utility.yul\":107:140   */\n      tag_68\n      jump\t// in\n    tag_67:\n        /* \"#utility.yul\":59:146   */\n      swap3\n      swap2\n      pop\n      pop\n      jump\t// out\n        /* \"#utility.yul\":152:414   */\n    tag_24:\n      0x00\n        /* \"#utility.yul\":260:262   */\n      0x20\n        /* \"#utility.yul\":248:257   */\n      dup3\n        /* \"#utility.yul\":239:246   */\n      dup5\n        /* \"#utility.yul\":235:258   */\n      sub\n        /* \"#utility.yul\":231:263   */\n      slt\n        /* \"#utility.yul\":228:230   */\n      iszero\n      tag_70\n      jumpi\n        /* \"#utility.yul\":276:277   */\n      0x00\n        /* \"#utility.yul\":273:274   */\n      dup1\n        /* \"#utility.yul\":266:278   */\n      revert\n        /* \"#utility.yul\":228:230   */\n    tag_70:\n        /* \"#utility.yul\":319:320   */\n      0x00\n        /* \"#utility.yul\":344:397   */\n      tag_71\n        /* \"#utility.yul\":389:396   */\n      dup5\n        /* \"#utility.yul\":380:386   */\n      dup3\n        /* \"#utility.yul\":369:378   */\n      dup6\n        /* \"#utility.yul\":365:387   */\n      add\n        /* \"#utility.yul\":344:397   */\n      tag_65\n      jump\t// in\n    tag_71:\n        /* \"#utility.yul\":334:397   */\n      swap2\n      pop\n        /* \"#utility.yul\":290:407   */\n      pop\n        /* \"#utility.yul\":218:414   */\n      swap3\n      swap2\n      pop\n      pop\n      jump\t// out\n        /* \"#utility.yul\":420:599   */\n    tag_72:\n      0x00\n        /* \"#utility.yul\":510:556   */\n      tag_74\n        /* \"#utility.yul\":552:555   */\n      dup4\n        /* \"#utility.yul\":544:550   */\n      dup4\n        /* \"#utility.yul\":510:556   */\n      tag_75\n      jump\t// in\n    tag_74:\n        /* \"#utility.yul\":588:592   */\n      0x20\n        /* \"#utility.yul\":583:586   */\n      dup4\n        /* \"#utility.yul\":579:593   */\n      add\n        /* \"#utility.yul\":565:593   */\n      swap1\n      pop\n        /* \"#utility.yul\":500:599   */\n      swap3\n      swap2\n      pop\n      pop\n      jump\t// out\n        /* \"#utility.yul\":605:800   */\n    tag_76:\n      0x00\n        /* \"#utility.yul\":703:757   */\n      tag_78\n        /* \"#utility.yul\":753:756   */\n      dup4\n        /* \"#utility.yul\":745:751   */\n      dup4\n        /* \"#utility.yul\":703:757   */\n      tag_79\n      jump\t// in\n    tag_78:\n        /* \"#utility.yul\":789:793   */\n      0x20\n        /* \"#utility.yul\":784:787   */\n      dup4\n        /* \"#utility.yul\":780:794   */\n      add\n        /* \"#utility.yul\":766:794   */\n      swap1\n      pop\n        /* \"#utility.yul\":693:800   */\n      swap3\n      swap2\n      pop\n      pop\n      jump\t// out\n        /* \"#utility.yul\":806:914   */\n    tag_75:\n        /* \"#utility.yul\":883:907   */\n      tag_81\n        /* \"#utility.yul\":901:906   */\n      dup2\n        /* \"#utility.yul\":883:907   */\n      tag_82\n      jump\t// in\n    tag_81:\n        /* \"#utility.yul\":878:881   */\n      dup3\n        /* \"#utility.yul\":871:908   */\n      mstore\n        /* \"#utility.yul\":861:914   */\n      pop\n      pop\n      jump\t// out\n        /* \"#utility.yul\":920:1038   */\n    tag_83:\n        /* \"#utility.yul\":1007:1031   */\n      tag_85\n        /* \"#utility.yul\":1025:1030   */\n      dup2\n        /* \"#utility.yul\":1007:1031   */\n      tag_82\n      jump\t// in\n    tag_85:\n        /* \"#utility.yul\":1002:1005   */\n      dup3\n        /* \"#utility.yul\":995:1032   */\n      mstore\n        /* \"#utility.yul\":985:1038   */\n      pop\n      pop\n      jump\t// out\n        /* \"#utility.yul\":1044:1160   */\n    tag_79:\n        /* \"#utility.yul\":1129:1153   */\n      tag_87\n        /* \"#utility.yul\":1147:1152   */\n      dup2\n        /* \"#utility.yul\":1129:1153   */\n      tag_82\n      jump\t// in\n    tag_87:\n        /* \"#utility.yul\":1124:1127   */\n      dup3\n        /* \"#utility.yul\":1117:1154   */\n      mstore\n        /* \"#utility.yul\":1107:1160   */\n      pop\n      pop\n      jump\t// out\n        /* \"#utility.yul\":1166:1323   */\n    tag_88:\n        /* \"#utility.yul\":1271:1316   */\n      tag_90\n        /* \"#utility.yul\":1291:1315   */\n      tag_91\n        /* \"#utility.yul\":1309:1314   */\n      dup3\n        /* \"#utility.yul\":1291:1315   */\n      tag_82\n      jump\t// in\n    tag_91:\n        /* \"#utility.yul\":1271:1316   */\n      tag_92\n      jump\t// in\n    tag_90:\n        /* \"#utility.yul\":1266:1269   */\n      dup3\n        /* \"#utility.yul\":1259:1317   */\n      mstore\n        /* \"#utility.yul\":1249:1323   */\n      pop\n      pop\n      jump\t// out\n        /* \"#utility.yul\":1359:2091   */\n    tag_93:\n      0x00\n        /* \"#utility.yul\":1507:1561   */\n      tag_95\n        /* \"#utility.yul\":1555:1560   */\n      dup3\n        /* \"#utility.yul\":1507:1561   */\n      tag_96\n      jump\t// in\n    tag_95:\n        /* \"#utility.yul\":1577:1663   */\n      tag_97\n        /* \"#utility.yul\":1656:1662   */\n      dup2\n        /* \"#utility.yul\":1651:1654   */\n      dup6\n        /* \"#utility.yul\":1577:1663   */\n      tag_98\n      jump\t// in\n    tag_97:\n        /* \"#utility.yul\":1570:1663   */\n      swap4\n      pop\n        /* \"#utility.yul\":1687:1743   */\n      tag_99\n        /* \"#utility.yul\":1737:1742   */\n      dup4\n        /* \"#utility.yul\":1687:1743   */\n      tag_100\n      jump\t// in\n    tag_99:\n        /* \"#utility.yul\":1766:1773   */\n      dup1\n        /* \"#utility.yul\":1797:1798   */\n      0x00\n        /* \"#utility.yul\":1782:2066   */\n    tag_101:\n        /* \"#utility.yul\":1807:1813   */\n      dup4\n        /* \"#utility.yul\":1804:1805   */\n      dup2\n        /* \"#utility.yul\":1801:1814   */\n      lt\n        /* \"#utility.yul\":1782:2066   */\n      iszero\n      tag_103\n      jumpi\n        /* \"#utility.yul\":1883:1889   */\n      dup2\n        /* \"#utility.yul\":1877:1890   */\n      mload\n        /* \"#utility.yul\":1910:1973   */\n      tag_104\n        /* \"#utility.yul\":1969:1972   */\n      dup9\n        /* \"#utility.yul\":1954:1967   */\n      dup3\n        /* \"#utility.yul\":1910:1973   */\n      tag_72\n      jump\t// in\n    tag_104:\n        /* \"#utility.yul\":1903:1973   */\n      swap8\n      pop\n        /* \"#utility.yul\":1996:2056   */\n      tag_105\n        /* \"#utility.yul\":2049:2055   */\n      dup4\n        /* \"#utility.yul\":1996:2056   */\n      tag_106\n      jump\t// in\n    tag_105:\n        /* \"#utility.yul\":1986:2056   */\n      swap3\n      pop\n        /* \"#utility.yul\":1842:2066   */\n      pop\n        /* \"#utility.yul\":1829:1830   */\n      0x01\n        /* \"#utility.yul\":1826:1827   */\n      dup2\n        /* \"#utility.yul\":1822:1831   */\n      add\n        /* \"#utility.yul\":1817:1831   */\n      swap1\n      pop\n        /* \"#utility.yul\":1782:2066   */\n      jump(tag_101)\n    tag_103:\n        /* \"#utility.yul\":1786:1800   */\n      pop\n        /* \"#utility.yul\":2082:2085   */\n      dup6\n        /* \"#utility.yul\":2075:2085   */\n      swap4\n      pop\n        /* \"#utility.yul\":1483:2091   */\n      pop\n      pop\n      pop\n      swap3\n      swap2\n      pop\n      pop\n      jump\t// out\n        /* \"#utility.yul\":2127:2922   */\n    tag_107:\n      0x00\n        /* \"#utility.yul\":2290:2341   */\n      tag_109\n        /* \"#utility.yul\":2335:2340   */\n      dup3\n        /* \"#utility.yul\":2290:2341   */\n      tag_110\n      jump\t// in\n    tag_109:\n        /* \"#utility.yul\":2357:2461   */\n      tag_111\n        /* \"#utility.yul\":2454:2460   */\n      dup2\n        /* \"#utility.yul\":2449:2452   */\n      dup6\n        /* \"#utility.yul\":2357:2461   */\n      tag_112\n      jump\t// in\n    tag_111:\n        /* \"#utility.yul\":2350:2461   */\n      swap4\n      pop\n        /* \"#utility.yul\":2485:2538   */\n      tag_113\n        /* \"#utility.yul\":2532:2537   */\n      dup4\n        /* \"#utility.yul\":2485:2538   */\n      tag_114\n      jump\t// in\n    tag_113:\n        /* \"#utility.yul\":2561:2568   */\n      dup1\n        /* \"#utility.yul\":2592:2593   */\n      0x00\n        /* \"#utility.yul\":2577:2897   */\n    tag_115:\n        /* \"#utility.yul\":2602:2608   */\n      dup4\n        /* \"#utility.yul\":2599:2600   */\n      dup2\n        /* \"#utility.yul\":2596:2609   */\n      lt\n        /* \"#utility.yul\":2577:2897   */\n      iszero\n      tag_117\n      jumpi\n        /* \"#utility.yul\":2672:2716   */\n      tag_118\n        /* \"#utility.yul\":2709:2715   */\n      dup3\n        /* \"#utility.yul\":2672:2716   */\n      tag_119\n      jump\t// in\n    tag_118:\n        /* \"#utility.yul\":2736:2807   */\n      tag_120\n        /* \"#utility.yul\":2803:2806   */\n      dup9\n        /* \"#utility.yul\":2788:2801   */\n      dup3\n        /* \"#utility.yul\":2736:2807   */\n      tag_76\n      jump\t// in\n    tag_120:\n        /* \"#utility.yul\":2729:2807   */\n      swap8\n      pop\n        /* \"#utility.yul\":2830:2887   */\n      tag_121\n        /* \"#utility.yul\":2880:2886   */\n      dup4\n        /* \"#utility.yul\":2830:2887   */\n      tag_122\n      jump\t// in\n    tag_121:\n        /* \"#utility.yul\":2820:2887   */\n      swap3\n      pop\n        /* \"#utility.yul\":2637:2897   */\n      pop\n        /* \"#utility.yul\":2624:2625   */\n      0x01\n        /* \"#utility.yul\":2621:2622   */\n      dup2\n        /* \"#utility.yul\":2617:2626   */\n      add\n        /* \"#utility.yul\":2612:2626   */\n      swap1\n      pop\n        /* \"#utility.yul\":2577:2897   */\n      jump(tag_115)\n    tag_117:\n        /* \"#utility.yul\":2581:2595   */\n      pop\n        /* \"#utility.yul\":2913:2916   */\n      dup6\n        /* \"#utility.yul\":2906:2916   */\n      swap4\n      pop\n        /* \"#utility.yul\":2266:2922   */\n      pop\n      pop\n      pop\n      swap3\n      swap2\n      pop\n      pop\n      jump\t// out\n        /* \"#utility.yul\":2928:3294   */\n    tag_123:\n      0x00\n        /* \"#utility.yul\":3091:3158   */\n      tag_125\n        /* \"#utility.yul\":3155:3157   */\n      0x25\n        /* \"#utility.yul\":3150:3153   */\n      dup4\n        /* \"#utility.yul\":3091:3158   */\n      tag_126\n      jump\t// in\n    tag_125:\n        /* \"#utility.yul\":3084:3158   */\n      swap2\n      pop\n        /* \"#utility.yul\":3167:3260   */\n      tag_127\n        /* \"#utility.yul\":3256:3259   */\n      dup3\n        /* \"#utility.yul\":3167:3260   */\n      tag_128\n      jump\t// in\n    tag_127:\n        /* \"#utility.yul\":3285:3287   */\n      0x40\n        /* \"#utility.yul\":3280:3283   */\n      dup3\n        /* \"#utility.yul\":3276:3288   */\n      add\n        /* \"#utility.yul\":3269:3288   */\n      swap1\n      pop\n        /* \"#utility.yul\":3074:3294   */\n      swap2\n      swap1\n      pop\n      jump\t// out\n        /* \"#utility.yul\":3300:3666   */\n    tag_129:\n      0x00\n        /* \"#utility.yul\":3463:3530   */\n      tag_131\n        /* \"#utility.yul\":3527:3529   */\n      0x16\n        /* \"#utility.yul\":3522:3525   */\n      dup4\n        /* \"#utility.yul\":3463:3530   */\n      tag_126\n      jump\t// in\n    tag_131:\n        /* \"#utility.yul\":3456:3530   */\n      swap2\n      pop\n        /* \"#utility.yul\":3539:3632   */\n      tag_132\n        /* \"#utility.yul\":3628:3631   */\n      dup3\n        /* \"#utility.yul\":3539:3632   */\n      tag_133\n      jump\t// in\n    tag_132:\n        /* \"#utility.yul\":3657:3659   */\n      0x20\n        /* \"#utility.yul\":3652:3655   */\n      dup3\n        /* \"#utility.yul\":3648:3660   */\n      add\n        /* \"#utility.yul\":3641:3660   */\n      swap1\n      pop\n        /* \"#utility.yul\":3446:3666   */\n      swap2\n      swap1\n      pop\n      jump\t// out\n        /* \"#utility.yul\":3672:3829   */\n    tag_134:\n        /* \"#utility.yul\":3777:3822   */\n      tag_136\n        /* \"#utility.yul\":3797:3821   */\n      tag_137\n        /* \"#utility.yul\":3815:3820   */\n      dup3\n        /* \"#utility.yul\":3797:3821   */\n      tag_138\n      jump\t// in\n    tag_137:\n        /* \"#utility.yul\":3777:3822   */\n      tag_139\n      jump\t// in\n    tag_136:\n        /* \"#utility.yul\":3772:3775   */\n      dup3\n        /* \"#utility.yul\":3765:3823   */\n      mstore\n        /* \"#utility.yul\":3755:3829   */\n      pop\n      pop\n      jump\t// out\n        /* \"#utility.yul\":3835:4446   */\n    tag_56:\n      0x00\n        /* \"#utility.yul\":4065:4140   */\n      tag_141\n        /* \"#utility.yul\":4136:4139   */\n      dup3\n        /* \"#utility.yul\":4127:4133   */\n      dup7\n        /* \"#utility.yul\":4065:4140   */\n      tag_134\n      jump\t// in\n    tag_141:\n        /* \"#utility.yul\":4165:4167   */\n      0x20\n        /* \"#utility.yul\":4160:4163   */\n      dup3\n        /* \"#utility.yul\":4156:4168   */\n      add\n        /* \"#utility.yul\":4149:4168   */\n      swap2\n      pop\n        /* \"#utility.yul\":4178:4253   */\n      tag_142\n        /* \"#utility.yul\":4249:4252   */\n      dup3\n        /* \"#utility.yul\":4240:4246   */\n      dup6\n        /* \"#utility.yul\":4178:4253   */\n      tag_88\n      jump\t// in\n    tag_142:\n        /* \"#utility.yul\":4278:4280   */\n      0x14\n        /* \"#utility.yul\":4273:4276   */\n      dup3\n        /* \"#utility.yul\":4269:4281   */\n      add\n        /* \"#utility.yul\":4262:4281   */\n      swap2\n      pop\n        /* \"#utility.yul\":4298:4420   */\n      tag_143\n        /* \"#utility.yul\":4416:4419   */\n      dup3\n        /* \"#utility.yul\":4407:4413   */\n      dup5\n        /* \"#utility.yul\":4298:4420   */\n      tag_107\n      jump\t// in\n    tag_143:\n        /* \"#utility.yul\":4291:4420   */\n      swap2\n      pop\n        /* \"#utility.yul\":4437:4440   */\n      dup2\n        /* \"#utility.yul\":4430:4440   */\n      swap1\n      pop\n        /* \"#utility.yul\":4054:4446   */\n      swap5\n      swap4\n      pop\n      pop\n      pop\n      pop\n      jump\t// out\n        /* \"#utility.yul\":4452:4674   */\n    tag_11:\n      0x00\n        /* \"#utility.yul\":4583:4585   */\n      0x20\n        /* \"#utility.yul\":4572:4581   */\n      dup3\n        /* \"#utility.yul\":4568:4586   */\n      add\n        /* \"#utility.yul\":4560:4586   */\n      swap1\n      pop\n        /* \"#utility.yul\":4596:4667   */\n      tag_145\n        /* \"#utility.yul\":4664:4665   */\n      0x00\n        /* \"#utility.yul\":4653:4662   */\n      dup4\n        /* \"#utility.yul\":4649:4666   */\n      add\n        /* \"#utility.yul\":4640:4646   */\n      dup5\n        /* \"#utility.yul\":4596:4667   */\n      tag_83\n      jump\t// in\n    tag_145:\n        /* \"#utility.yul\":4550:4674   */\n      swap3\n      swap2\n      pop\n      pop\n      jump\t// out\n        /* \"#utility.yul\":4680:5053   */\n    tag_18:\n      0x00\n        /* \"#utility.yul\":4861:4863   */\n      0x20\n        /* \"#utility.yul\":4850:4859   */\n      dup3\n        /* \"#utility.yul\":4846:4864   */\n      add\n        /* \"#utility.yul\":4838:4864   */\n      swap1\n      pop\n        /* \"#utility.yul\":4910:4919   */\n      dup2\n        /* \"#utility.yul\":4904:4908   */\n      dup2\n        /* \"#utility.yul\":4900:4920   */\n      sub\n        /* \"#utility.yul\":4896:4897   */\n      0x00\n        /* \"#utility.yul\":4885:4894   */\n      dup4\n        /* \"#utility.yul\":4881:4898   */\n      add\n        /* \"#utility.yul\":4874:4921   */\n      mstore\n        /* \"#utility.yul\":4938:5046   */\n      tag_147\n        /* \"#utility.yul\":5041:5045   */\n      dup2\n        /* \"#utility.yul\":5032:5038   */\n      dup5\n        /* \"#utility.yul\":4938:5046   */\n      tag_93\n      jump\t// in\n    tag_147:\n        /* \"#utility.yul\":4930:5046   */\n      swap1\n      pop\n        /* \"#utility.yul\":4828:5053   */\n      swap3\n      swap2\n      pop\n      pop\n      jump\t// out\n        /* \"#utility.yul\":5059:5478   */\n    tag_50:\n      0x00\n        /* \"#utility.yul\":5263:5265   */\n      0x20\n        /* \"#utility.yul\":5252:5261   */\n      dup3\n        /* \"#utility.yul\":5248:5266   */\n      add\n        /* \"#utility.yul\":5240:5266   */\n      swap1\n      pop\n        /* \"#utility.yul\":5312:5321   */\n      dup2\n        /* \"#utility.yul\":5306:5310   */\n      dup2\n        /* \"#utility.yul\":5302:5322   */\n      sub\n        /* \"#utility.yul\":5298:5299   */\n      0x00\n        /* \"#utility.yul\":5287:5296   */\n      dup4\n        /* \"#utility.yul\":5283:5300   */\n      add\n        /* \"#utility.yul\":5276:5323   */\n      mstore\n        /* \"#utility.yul\":5340:5471   */\n      tag_149\n        /* \"#utility.yul\":5466:5470   */\n      dup2\n        /* \"#utility.yul\":5340:5471   */\n      tag_123\n      jump\t// in\n    tag_149:\n        /* \"#utility.yul\":5332:5471   */\n      swap1\n      pop\n        /* \"#utility.yul\":5230:5478   */\n      swap2\n      swap1\n      pop\n      jump\t// out\n        /* \"#utility.yul\":5484:5903   */\n    tag_30:\n      0x00\n        /* \"#utility.yul\":5688:5690   */\n      0x20\n        /* \"#utility.yul\":5677:5686   */\n      dup3\n        /* \"#utility.yul\":5673:5691   */\n      add\n        /* \"#utility.yul\":5665:5691   */\n      swap1\n      pop\n        /* \"#utility.yul\":5737:5746   */\n      dup2\n        /* \"#utility.yul\":5731:5735   */\n      dup2\n        /* \"#utility.yul\":5727:5747   */\n      sub\n        /* \"#utility.yul\":5723:5724   */\n      0x00\n        /* \"#utility.yul\":5712:5721   */\n      dup4\n        /* \"#utility.yul\":5708:5725   */\n      add\n        /* \"#utility.yul\":5701:5748   */\n      mstore\n        /* \"#utility.yul\":5765:5896   */\n      tag_151\n        /* \"#utility.yul\":5891:5895   */\n      dup2\n        /* \"#utility.yul\":5765:5896   */\n      tag_129\n      jump\t// in\n    tag_151:\n        /* \"#utility.yul\":5757:5896   */\n      swap1\n      pop\n        /* \"#utility.yul\":5655:5903   */\n      swap2\n      swap1\n      pop\n      jump\t// out\n        /* \"#utility.yul\":5909:6041   */\n    tag_100:\n      0x00\n        /* \"#utility.yul\":5999:6002   */\n      dup2\n        /* \"#utility.yul\":5991:6002   */\n      swap1\n      pop\n        /* \"#utility.yul\":6029:6033   */\n      0x20\n        /* \"#utility.yul\":6024:6027   */\n      dup3\n        /* \"#utility.yul\":6020:6034   */\n      add\n        /* \"#utility.yul\":6012:6034   */\n      swap1\n      pop\n        /* \"#utility.yul\":5981:6041   */\n      swap2\n      swap1\n      pop\n      jump\t// out\n        /* \"#utility.yul\":6047:6203   */\n    tag_114:\n      0x00\n        /* \"#utility.yul\":6134:6137   */\n      dup2\n        /* \"#utility.yul\":6126:6137   */\n      swap1\n      pop\n        /* \"#utility.yul\":6157:6160   */\n      dup2\n        /* \"#utility.yul\":6154:6155   */\n      0x00\n        /* \"#utility.yul\":6147:6161   */\n      mstore\n        /* \"#utility.yul\":6191:6195   */\n      0x20\n        /* \"#utility.yul\":6188:6189   */\n      0x00\n        /* \"#utility.yul\":6178:6196   */\n      keccak256\n        /* \"#utility.yul\":6170:6196   */\n      swap1\n      pop\n        /* \"#utility.yul\":6116:6203   */\n      swap2\n      swap1\n      pop\n      jump\t// out\n        /* \"#utility.yul\":6209:6323   */\n    tag_96:\n      0x00\n        /* \"#utility.yul\":6310:6315   */\n      dup2\n        /* \"#utility.yul\":6304:6316   */\n      mload\n        /* \"#utility.yul\":6294:6316   */\n      swap1\n      pop\n        /* \"#utility.yul\":6283:6323   */\n      swap2\n      swap1\n      pop\n      jump\t// out\n        /* \"#utility.yul\":6329:6440   */\n    tag_110:\n      0x00\n        /* \"#utility.yul\":6427:6432   */\n      dup2\n        /* \"#utility.yul\":6421:6433   */\n      sload\n        /* \"#utility.yul\":6411:6433   */\n      swap1\n      pop\n        /* \"#utility.yul\":6400:6440   */\n      swap2\n      swap1\n      pop\n      jump\t// out\n        /* \"#utility.yul\":6446:6559   */\n    tag_106:\n      0x00\n        /* \"#utility.yul\":6548:6552   */\n      0x20\n        /* \"#utility.yul\":6543:6546   */\n      dup3\n        /* \"#utility.yul\":6539:6553   */\n      add\n        /* \"#utility.yul\":6531:6553   */\n      swap1\n      pop\n        /* \"#utility.yul\":6521:6559   */\n      swap2\n      swap1\n      pop\n      jump\t// out\n        /* \"#utility.yul\":6565:6675   */\n    tag_122:\n      0x00\n        /* \"#utility.yul\":6664:6668   */\n      0x01\n        /* \"#utility.yul\":6659:6662   */\n      dup3\n        /* \"#utility.yul\":6655:6669   */\n      add\n        /* \"#utility.yul\":6647:6669   */\n      swap1\n      pop\n        /* \"#utility.yul\":6637:6675   */\n      swap2\n      swap1\n      pop\n      jump\t// out\n        /* \"#utility.yul\":6681:6865   */\n    tag_98:\n      0x00\n        /* \"#utility.yul\":6814:6820   */\n      dup3\n        /* \"#utility.yul\":6809:6812   */\n      dup3\n        /* \"#utility.yul\":6802:6821   */\n      mstore\n        /* \"#utility.yul\":6854:6858   */\n      0x20\n        /* \"#utility.yul\":6849:6852   */\n      dup3\n        /* \"#utility.yul\":6845:6859   */\n      add\n        /* \"#utility.yul\":6830:6859   */\n      swap1\n      pop\n        /* \"#utility.yul\":6792:6865   */\n      swap3\n      swap2\n      pop\n      pop\n      jump\t// out\n        /* \"#utility.yul\":6871:7034   */\n    tag_112:\n      0x00\n        /* \"#utility.yul\":7025:7028   */\n      dup2\n        /* \"#utility.yul\":7010:7028   */\n      swap1\n      pop\n        /* \"#utility.yul\":7000:7034   */\n      swap3\n      swap2\n      pop\n      pop\n      jump\t// out\n        /* \"#utility.yul\":7040:7209   */\n    tag_126:\n      0x00\n        /* \"#utility.yul\":7158:7164   */\n      dup3\n        /* \"#utility.yul\":7153:7156   */\n      dup3\n        /* \"#utility.yul\":7146:7165   */\n      mstore\n        /* \"#utility.yul\":7198:7202   */\n      0x20\n        /* \"#utility.yul\":7193:7196   */\n      dup3\n        /* \"#utility.yul\":7189:7203   */\n      add\n        /* \"#utility.yul\":7174:7203   */\n      swap1\n      pop\n        /* \"#utility.yul\":7136:7209   */\n      swap3\n      swap2\n      pop\n      pop\n      jump\t// out\n        /* \"#utility.yul\":7215:7354   */\n    tag_161:\n      0x00\n        /* \"#utility.yul\":7305:7347   */\n      0xffffffffffffffffffffffffffffffffffffffff\n        /* \"#utility.yul\":7298:7303   */\n      dup3\n        /* \"#utility.yul\":7294:7348   */\n      and\n        /* \"#utility.yul\":7283:7348   */\n      swap1\n      pop\n        /* \"#utility.yul\":7273:7354   */\n      swap2\n      swap1\n      pop\n      jump\t// out\n        /* \"#utility.yul\":7360:7456   */\n    tag_82:\n      0x00\n        /* \"#utility.yul\":7426:7450   */\n      tag_164\n        /* \"#utility.yul\":7444:7449   */\n      dup3\n        /* \"#utility.yul\":7426:7450   */\n      tag_165\n      jump\t// in\n    tag_164:\n        /* \"#utility.yul\":7415:7450   */\n      swap1\n      pop\n        /* \"#utility.yul\":7405:7456   */\n      swap2\n      swap1\n      pop\n      jump\t// out\n        /* \"#utility.yul\":7462:7588   */\n    tag_165:\n      0x00\n        /* \"#utility.yul\":7539:7581   */\n      0xffffffffffffffffffffffffffffffffffffffff\n        /* \"#utility.yul\":7532:7537   */\n      dup3\n        /* \"#utility.yul\":7528:7582   */\n      and\n        /* \"#utility.yul\":7517:7582   */\n      swap1\n      pop\n        /* \"#utility.yul\":7507:7588   */\n      swap2\n      swap1\n      pop\n      jump\t// out\n        /* \"#utility.yul\":7594:7671   */\n    tag_138:\n      0x00\n        /* \"#utility.yul\":7660:7665   */\n      dup2\n        /* \"#utility.yul\":7649:7665   */\n      swap1\n      pop\n        /* \"#utility.yul\":7639:7671   */\n      swap2\n      swap1\n      pop\n      jump\t// out\n        /* \"#utility.yul\":7677:7843   */\n    tag_168:\n      0x00\n        /* \"#utility.yul\":7771:7837   */\n      tag_170\n        /* \"#utility.yul\":7802:7836   */\n      tag_171\n        /* \"#utility.yul\":7825:7835   */\n      dup4\n        /* \"#utility.yul\":7802:7836   */\n      tag_172\n      jump\t// in\n    tag_171:\n        /* \"#utility.yul\":7771:7837   */\n      tag_161\n      jump\t// in\n    tag_170:\n        /* \"#utility.yul\":7762:7837   */\n      swap1\n      pop\n        /* \"#utility.yul\":7752:7843   */\n      swap2\n      swap1\n      pop\n      jump\t// out\n        /* \"#utility.yul\":7849:7949   */\n    tag_92:\n      0x00\n        /* \"#utility.yul\":7917:7943   */\n      tag_174\n        /* \"#utility.yul\":7937:7942   */\n      dup3\n        /* \"#utility.yul\":7917:7943   */\n      tag_175\n      jump\t// in\n    tag_174:\n        /* \"#utility.yul\":7906:7943   */\n      swap1\n      pop\n        /* \"#utility.yul\":7896:7949   */\n      swap2\n      swap1\n      pop\n      jump\t// out\n        /* \"#utility.yul\":7955:8049   */\n    tag_175:\n      0x00\n        /* \"#utility.yul\":8023:8043   */\n      tag_177\n        /* \"#utility.yul\":8037:8042   */\n      dup3\n        /* \"#utility.yul\":8023:8043   */\n      tag_178\n      jump\t// in\n    tag_177:\n        /* \"#utility.yul\":8012:8043   */\n      swap1\n      pop\n        /* \"#utility.yul\":8002:8049   */\n      swap2\n      swap1\n      pop\n      jump\t// out\n        /* \"#utility.yul\":8055:8134   */\n    tag_139:\n      0x00\n        /* \"#utility.yul\":8123:8128   */\n      dup2\n        /* \"#utility.yul\":8112:8128   */\n      swap1\n      pop\n        /* \"#utility.yul\":8102:8134   */\n      swap2\n      swap1\n      pop\n      jump\t// out\n        /* \"#utility.yul\":8140:8316   */\n    tag_35:\n      0x00\n        /* \"#utility.yul\":8189:8209   */\n      tag_181\n        /* \"#utility.yul\":8207:8208   */\n      dup3\n        /* \"#utility.yul\":8189:8209   */\n      tag_138\n      jump\t// in\n    tag_181:\n        /* \"#utility.yul\":8184:8209   */\n      swap2\n      pop\n        /* \"#utility.yul\":8223:8243   */\n      tag_182\n        /* \"#utility.yul\":8241:8242   */\n      dup4\n        /* \"#utility.yul\":8223:8243   */\n      tag_138\n      jump\t// in\n    tag_182:\n        /* \"#utility.yul\":8218:8243   */\n      swap3\n      pop\n        /* \"#utility.yul\":8262:8263   */\n      dup3\n        /* \"#utility.yul\":8252:8254   */\n      tag_183\n      jumpi\n        /* \"#utility.yul\":8267:8285   */\n      tag_184\n      tag_185\n      jump\t// in\n    tag_184:\n        /* \"#utility.yul\":8252:8254   */\n    tag_183:\n        /* \"#utility.yul\":8308:8309   */\n      dup3\n        /* \"#utility.yul\":8305:8306   */\n      dup3\n        /* \"#utility.yul\":8301:8310   */\n      mod\n        /* \"#utility.yul\":8296:8310   */\n      swap1\n      pop\n        /* \"#utility.yul\":8174:8316   */\n      swap3\n      swap2\n      pop\n      pop\n      jump\t// out\n        /* \"#utility.yul\":8322:8502   */\n    tag_185:\n        /* \"#utility.yul\":8370:8447   */\n      0x4e487b7100000000000000000000000000000000000000000000000000000000\n        /* \"#utility.yul\":8367:8368   */\n      0x00\n        /* \"#utility.yul\":8360:8448   */\n      mstore\n        /* \"#utility.yul\":8467:8471   */\n      0x12\n        /* \"#utility.yul\":8464:8465   */\n      0x04\n        /* \"#utility.yul\":8457:8472   */\n      mstore\n        /* \"#utility.yul\":8491:8495   */\n      0x24\n        /* \"#utility.yul\":8488:8489   */\n      0x00\n        /* \"#utility.yul\":8481:8496   */\n      revert\n        /* \"#utility.yul\":8508:8652   */\n    tag_119:\n      0x00\n        /* \"#utility.yul\":8588:8645   */\n      tag_188\n        /* \"#utility.yul\":8639:8643   */\n      dup3\n        /* \"#utility.yul\":8633:8644   */\n      sload\n        /* \"#utility.yul\":8588:8645   */\n      tag_168\n      jump\t// in\n    tag_188:\n        /* \"#utility.yul\":8579:8645   */\n      swap1\n      pop\n        /* \"#utility.yul\":8569:8652   */\n      swap2\n      swap1\n      pop\n      jump\t// out\n        /* \"#utility.yul\":8658:8752   */\n    tag_178:\n      0x00\n        /* \"#utility.yul\":8739:8744   */\n      dup2\n        /* \"#utility.yul\":8735:8737   */\n      0x60\n        /* \"#utility.yul\":8731:8745   */\n      shl\n        /* \"#utility.yul\":8710:8745   */\n      swap1\n      pop\n        /* \"#utility.yul\":8700:8752   */\n      swap2\n      swap1\n      pop\n      jump\t// out\n        /* \"#utility.yul\":8758:8860   */\n    tag_172:\n      0x00\n        /* \"#utility.yul\":8847:8852   */\n      dup2\n        /* \"#utility.yul\":8844:8845   */\n      0x00\n        /* \"#utility.yul\":8840:8853   */\n      shr\n        /* \"#utility.yul\":8819:8853   */\n      swap1\n      pop\n        /* \"#utility.yul\":8809:8860   */\n      swap2\n      swap1\n      pop\n      jump\t// out\n        /* \"#utility.yul\":8866:9090   */\n    tag_128:\n        /* \"#utility.yul\":9006:9040   */\n      0x56616c7565206d7573742062652067726561746572207468616e20302e312065\n        /* \"#utility.yul\":9002:9003   */\n      0x00\n        /* \"#utility.yul\":8994:9000   */\n      dup3\n        /* \"#utility.yul\":8990:9004   */\n      add\n        /* \"#utility.yul\":8983:9041   */\n      mstore\n        /* \"#utility.yul\":9075:9082   */\n      0x746865722e000000000000000000000000000000000000000000000000000000\n        /* \"#utility.yul\":9070:9072   */\n      0x20\n        /* \"#utility.yul\":9062:9068   */\n      dup3\n        /* \"#utility.yul\":9058:9073   */\n      add\n        /* \"#utility.yul\":9051:9083   */\n      mstore\n        /* \"#utility.yul\":8972:9090   */\n      pop\n      jump\t// out\n        /* \"#utility.yul\":9096:9268   */\n    tag_133:\n        /* \"#utility.yul\":9236:9260   */\n      0x596f75206d7573742062652061206d616e616765722e00000000000000000000\n        /* \"#utility.yul\":9232:9233   */\n      0x00\n        /* \"#utility.yul\":9224:9230   */\n      dup3\n        /* \"#utility.yul\":9220:9234   */\n      add\n        /* \"#utility.yul\":9213:9261   */\n      mstore\n        /* \"#utility.yul\":9202:9268   */\n      pop\n      jump\t// out\n        /* \"#utility.yul\":9274:9396   */\n    tag_68:\n        /* \"#utility.yul\":9347:9371   */\n      tag_194\n        /* \"#utility.yul\":9365:9370   */\n      dup2\n        /* \"#utility.yul\":9347:9371   */\n      tag_138\n      jump\t// in\n    tag_194:\n        /* \"#utility.yul\":9340:9345   */\n      dup2\n        /* \"#utility.yul\":9337:9372   */\n      eq\n        /* \"#utility.yul\":9327:9329   */\n      tag_195\n      jumpi\n        /* \"#utility.yul\":9386:9387   */\n      0x00\n        /* \"#utility.yul\":9383:9384   */\n      dup1\n        /* \"#utility.yul\":9376:9388   */\n      revert\n        /* \"#utility.yul\":9327:9329   */\n    tag_195:\n        /* \"#utility.yul\":9317:9396   */\n      pop\n      jump\t// out\n\n    auxdata: 0xa2646970667358221220fe79b4b208afdcb7da2613357a6f92e19a7955450ca0a21339cebefcf015281764736f6c63430008020033\n}\n","bytecode":{"linkReferences":{},"object":"608060405234801561001057600080fd5b50336000806101000a81548173ffffffffffffffffffffffffffffffffffffffff021916908373ffffffffffffffffffffffffffffffffffffffff160217905550610a67806100606000396000f3fe60806040526004361061004a5760003560e01c8063481c6a751461004f5780635d495aea1461007a5780638b5b9ccc14610084578063e97dcb62146100af578063f71d96cb146100b9575b600080fd5b34801561005b57600080fd5b506100646100f6565b6040516100719190610772565b60405180910390f35b61008261011a565b005b34801561009057600080fd5b5061009961030f565b6040516100a6919061078d565b60405180910390f35b6100b761039d565b005b3480156100c557600080fd5b506100e060048036038101906100db919061057c565b61044b565b6040516100ed9190610772565b60405180910390f35b60008054906101000a900473ffffffffffffffffffffffffffffffffffffffff1681565b60008054906101000a900473ffffffffffffffffffffffffffffffffffffffff1673ffffffffffffffffffffffffffffffffffffffff163373ffffffffffffffffffffffffffffffffffffffff16146101a8576040517f08c379a000000000000000000000000000000000000000000000000000000000815260040161019f906107cf565b60405180910390fd5b60006001805490506101b861048a565b6101c29190610915565b9050600181815481106101fe577f4e487b7100000000000000000000000000000000000000000000000000000000600052603260045260246000fd5b9060005260206000200160009054906101000a900473ffffffffffffffffffffffffffffffffffffffff1673ffffffffffffffffffffffffffffffffffffffff166108fc3073ffffffffffffffffffffffffffffffffffffffff16319081150290604051600060405180830381858888f19350505050158015610285573d6000803e3d6000fd5b50600067ffffffffffffffff8111156102c7577f4e487b7100000000000000000000000000000000000000000000000000000000600052604160045260246000fd5b6040519080825280602002602001820160405280156102f55781602001602082028036833780820191505090505b506001908051906020019061030b9291906104c0565b5050565b6060600180548060200260200160405190810160405280929190818152602001828054801561039357602002820191906000526020600020905b8160009054906101000a900473ffffffffffffffffffffffffffffffffffffffff1673ffffffffffffffffffffffffffffffffffffffff1681526020019060010190808311610349575b5050505050905090565b662386f26fc1000034116103e6576040517f08c379a00000000000000000000000000000000000000000000000000000000081526004016103dd906107af565b60405180910390fd5b6001339080600181540180825580915050600190039060005260206000200160009091909190916101000a81548173ffffffffffffffffffffffffffffffffffffffff021916908373ffffffffffffffffffffffffffffffffffffffff160217905550565b6001818154811061045b57600080fd5b906000526020600020016000915054906101000a900473ffffffffffffffffffffffffffffffffffffffff1681565b6000423360016040516020016104a293929190610739565b6040516020818303038152906040528051906020012060001c905090565b828054828255906000526020600020908101928215610539579160200282015b828111156105385782518260006101000a81548173ffffffffffffffffffffffffffffffffffffffff021916908373ffffffffffffffffffffffffffffffffffffffff160217905550916020019190600101906104e0565b5b509050610546919061054a565b5090565b5b8082111561056357600081600090555060010161054b565b5090565b60008135905061057681610a1a565b92915050565b60006020828403121561058e57600080fd5b600061059c84828501610567565b91505092915050565b60006105b183836105d5565b60208301905092915050565b60006105c983836105f3565b60208301905092915050565b6105de81610891565b82525050565b6105ed81610891565b82525050565b6105fc81610891565b82525050565b61061361060e82610891565b6108e7565b82525050565b600061062482610814565b61062e8185610844565b9350610639836107ef565b8060005b8381101561066a57815161065188826105a5565b975061065c8361082a565b92505060018101905061063d565b5085935050505092915050565b60006106828261081f565b61068c8185610855565b9350610697836107ff565b8060005b838110156106cf576106ac82610975565b6106b688826105bd565b97506106c183610837565b92505060018101905061069b565b5085935050505092915050565b60006106e9602583610860565b91506106f4826109a2565b604082019050919050565b600061070c601683610860565b9150610717826109f1565b602082019050919050565b61073361072e826108c3565b61090b565b82525050565b60006107458286610722565b6020820191506107558285610602565b6014820191506107658284610677565b9150819050949350505050565b600060208201905061078760008301846105e4565b92915050565b600060208201905081810360008301526107a78184610619565b905092915050565b600060208201905081810360008301526107c8816106dc565b9050919050565b600060208201905081810360008301526107e8816106ff565b9050919050565b6000819050602082019050919050565b60008190508160005260206000209050919050565b600081519050919050565b600081549050919050565b6000602082019050919050565b6000600182019050919050565b600082825260208201905092915050565b600081905092915050565b600082825260208201905092915050565b600073ffffffffffffffffffffffffffffffffffffffff82169050919050565b600061089c826108a3565b9050919050565b600073ffffffffffffffffffffffffffffffffffffffff82169050919050565b6000819050919050565b60006108e06108db83610995565b610871565b9050919050565b60006108f2826108f9565b9050919050565b600061090482610988565b9050919050565b6000819050919050565b6000610920826108c3565b915061092b836108c3565b92508261093b5761093a610946565b5b828206905092915050565b7f4e487b7100000000000000000000000000000000000000000000000000000000600052601260045260246000fd5b600061098182546108cd565b9050919050565b60008160601b9050919050565b60008160001c9050919050565b7f56616c7565206d7573742062652067726561746572207468616e20302e31206560008201527f746865722e000000000000000000000000000000000000000000000000000000602082015250565b7f596f75206d7573742062652061206d616e616765722e00000000000000000000600082015250565b610a23816108c3565b8114610a2e57600080fd5b5056fea2646970667358221220fe79b4b208afdcb7da2613357a6f92e19a7955450ca0a21339cebefcf015281764736f6c63430008020033","opcodes":"PUSH1 0x80 PUSH1 0x40 MSTORE CALLVALUE DUP1 ISZERO PUSH2 0x10 JUMPI PUSH1 0x0 DUP1 REVERT JUMPDEST POP CALLER PUSH1 0x0 DUP1 PUSH2 0x100 EXP DUP2 SLOAD DUP2 PUSH20 0xFFFFFFFFFFFFFFFFFFFFFFFFFFFFFFFFFFFFFFFF MUL NOT AND SWAP1 DUP4 PUSH20 0xFFFFFFFFFFFFFFFFFFFFFFFFFFFFFFFFFFFFFFFF AND MUL OR SWAP1 SSTORE POP PUSH2 0xA67 DUP1 PUSH2 0x60 PUSH1 0x0 CODECOPY PUSH1 0x0 RETURN INVALID PUSH1 0x80 PUSH1 0x40 MSTORE PUSH1 0x4 CALLDATASIZE LT PUSH2 0x4A JUMPI PUSH1 0x0 CALLDATALOAD PUSH1 0xE0 SHR DUP1 PUSH4 0x481C6A75 EQ PUSH2 0x4F JUMPI DUP1 PUSH4 0x5D495AEA EQ PUSH2 0x7A JUMPI DUP1 PUSH4 0x8B5B9CCC EQ PUSH2 0x84 JUMPI DUP1 PUSH4 0xE97DCB62 EQ PUSH2 0xAF JUMPI DUP1 PUSH4 0xF71D96CB EQ PUSH2 0xB9 JUMPI JUMPDEST PUSH1 0x0 DUP1 REVERT JUMPDEST CALLVALUE DUP1 ISZERO PUSH2 0x5B JUMPI PUSH1 0x0 DUP1 REVERT JUMPDEST POP PUSH2 0x64 PUSH2 0xF6 JUMP JUMPDEST PUSH1 0x40 MLOAD PUSH2 0x71 SWAP2 SWAP1 PUSH2 0x772 JUMP JUMPDEST PUSH1 0x40 MLOAD DUP1 SWAP2 SUB SWAP1 RETURN JUMPDEST PUSH2 0x82 PUSH2 0x11A JUMP JUMPDEST STOP JUMPDEST CALLVALUE DUP1 ISZERO PUSH2 0x90 JUMPI PUSH1 0x0 DUP1 REVERT JUMPDEST POP PUSH2 0x99 PUSH2 0x30F JUMP JUMPDEST PUSH1 0x40 MLOAD PUSH2 0xA6 SWAP2 SWAP1 PUSH2 0x78D JUMP JUMPDEST PUSH1 0x40 MLOAD DUP1 SWAP2 SUB SWAP1 RETURN JUMPDEST PUSH2 0xB7 PUSH2 0x39D JUMP JUMPDEST STOP JUMPDEST CALLVALUE DUP1 ISZERO PUSH2 0xC5 JUMPI PUSH1 0x0 DUP1 REVERT JUMPDEST POP PUSH2 0xE0 PUSH1 0x4 DUP1 CALLDATASIZE SUB DUP2 ADD SWAP1 PUSH2 0xDB SWAP2 SWAP1 PUSH2 0x57C JUMP JUMPDEST PUSH2 0x44B JUMP JUMPDEST PUSH1 0x40 MLOAD PUSH2 0xED SWAP2 SWAP1 PUSH2 0x772 JUMP JUMPDEST PUSH1 0x40 MLOAD DUP1 SWAP2 SUB SWAP1 RETURN JUMPDEST PUSH1 0x0 DUP1 SLOAD SWAP1 PUSH2 0x100 EXP SWAP1 DIV PUSH20 0xFFFFFFFFFFFFFFFFFFFFFFFFFFFFFFFFFFFFFFFF AND DUP2 JUMP JUMPDEST PUSH1 0x0 DUP1 SLOAD SWAP1 PUSH2 0x100 EXP SWAP1 DIV PUSH20 0xFFFFFFFFFFFFFFFFFFFFFFFFFFFFFFFFFFFFFFFF AND PUSH20 0xFFFFFFFFFFFFFFFFFFFFFFFFFFFFFFFFFFFFFFFF AND CALLER PUSH20 0xFFFFFFFFFFFFFFFFFFFFFFFFFFFFFFFFFFFFFFFF AND EQ PUSH2 0x1A8 JUMPI PUSH1 0x40 MLOAD PUSH32 0x8C379A000000000000000000000000000000000000000000000000000000000 DUP2 MSTORE PUSH1 0x4 ADD PUSH2 0x19F SWAP1 PUSH2 0x7CF JUMP JUMPDEST PUSH1 0x40 MLOAD DUP1 SWAP2 SUB SWAP1 REVERT JUMPDEST PUSH1 0x0 PUSH1 0x1 DUP1 SLOAD SWAP1 POP PUSH2 0x1B8 PUSH2 0x48A JUMP JUMPDEST PUSH2 0x1C2 SWAP2 SWAP1 PUSH2 0x915 JUMP JUMPDEST SWAP1 POP PUSH1 0x1 DUP2 DUP2 SLOAD DUP2 LT PUSH2 0x1FE JUMPI PUSH32 0x4E487B7100000000000000000000000000000000000000000000000000000000 PUSH1 0x0 MSTORE PUSH1 0x32 PUSH1 0x4 MSTORE PUSH1 0x24 PUSH1 0x0 REVERT JUMPDEST SWAP1 PUSH1 0x0 MSTORE PUSH1 0x20 PUSH1 0x0 KECCAK256 ADD PUSH1 0x0 SWAP1 SLOAD SWAP1 PUSH2 0x100 EXP SWAP1 DIV PUSH20 0xFFFFFFFFFFFFFFFFFFFFFFFFFFFFFFFFFFFFFFFF AND PUSH20 0xFFFFFFFFFFFFFFFFFFFFFFFFFFFFFFFFFFFFFFFF AND PUSH2 0x8FC ADDRESS PUSH20 0xFFFFFFFFFFFFFFFFFFFFFFFFFFFFFFFFFFFFFFFF AND BALANCE SWAP1 DUP2 ISZERO MUL SWAP1 PUSH1 0x40 MLOAD PUSH1 0x0 PUSH1 0x40 MLOAD DUP1 DUP4 SUB DUP2 DUP6 DUP9 DUP9 CALL SWAP4 POP POP POP POP ISZERO DUP1 ISZERO PUSH2 0x285 JUMPI RETURNDATASIZE PUSH1 0x0 DUP1 RETURNDATACOPY RETURNDATASIZE PUSH1 0x0 REVERT JUMPDEST POP PUSH1 0x0 PUSH8 0xFFFFFFFFFFFFFFFF DUP2 GT ISZERO PUSH2 0x2C7 JUMPI PUSH32 0x4E487B7100000000000000000000000000000000000000000000000000000000 PUSH1 0x0 MSTORE PUSH1 0x41 PUSH1 0x4 MSTORE PUSH1 0x24 PUSH1 0x0 REVERT JUMPDEST PUSH1 0x40 MLOAD SWAP1 DUP1 DUP3 MSTORE DUP1 PUSH1 0x20 MUL PUSH1 0x20 ADD DUP3 ADD PUSH1 0x40 MSTORE DUP1 ISZERO PUSH2 0x2F5 JUMPI DUP2 PUSH1 0x20 ADD PUSH1 0x20 DUP3 MUL DUP1 CALLDATASIZE DUP4 CALLDATACOPY DUP1 DUP3 ADD SWAP2 POP POP SWAP1 POP JUMPDEST POP PUSH1 0x1 SWAP1 DUP1 MLOAD SWAP1 PUSH1 0x20 ADD SWAP1 PUSH2 0x30B SWAP3 SWAP2 SWAP1 PUSH2 0x4C0 JUMP JUMPDEST POP POP JUMP JUMPDEST PUSH1 0x60 PUSH1 0x1 DUP1 SLOAD DUP1 PUSH1 0x20 MUL PUSH1 0x20 ADD PUSH1 0x40 MLOAD SWAP1 DUP2 ADD PUSH1 0x40 MSTORE DUP1 SWAP3 SWAP2 SWAP1 DUP2 DUP2 MSTORE PUSH1 0x20 ADD DUP3 DUP1 SLOAD DUP1 ISZERO PUSH2 0x393 JUMPI PUSH1 0x20 MUL DUP3 ADD SWAP2 SWAP1 PUSH1 0x0 MSTORE PUSH1 0x20 PUSH1 0x0 KECCAK256 SWAP1 JUMPDEST DUP2 PUSH1 0x0 SWAP1 SLOAD SWAP1 PUSH2 0x100 EXP SWAP1 DIV PUSH20 0xFFFFFFFFFFFFFFFFFFFFFFFFFFFFFFFFFFFFFFFF AND PUSH20 0xFFFFFFFFFFFFFFFFFFFFFFFFFFFFFFFFFFFFFFFF AND DUP2 MSTORE PUSH1 0x20 ADD SWAP1 PUSH1 0x1 ADD SWAP1 DUP1 DUP4 GT PUSH2 0x349 JUMPI JUMPDEST POP POP POP POP POP SWAP1 POP SWAP1 JUMP JUMPDEST PUSH7 0x2386F26FC10000 CALLVALUE GT PUSH2 0x3E6 JUMPI PUSH1 0x40 MLOAD PUSH32 0x8C379A000000000000000000000000000000000000000000000000000000000 DUP2 MSTORE PUSH1 0x4 ADD PUSH2 0x3DD SWAP1 PUSH2 0x7AF JUMP JUMPDEST PUSH1 0x40 MLOAD DUP1 SWAP2 SUB SWAP1 REVERT JUMPDEST PUSH1 0x1 CALLER SWAP1 DUP1 PUSH1 0x1 DUP2 SLOAD ADD DUP1 DUP3 SSTORE DUP1 SWAP2 POP POP PUSH1 0x1 SWAP1 SUB SWAP1 PUSH1 0x0 MSTORE PUSH1 0x20 PUSH1 0x0 KECCAK256 ADD PUSH1 0x0 SWAP1 SWAP2 SWAP1 SWAP2 SWAP1 SWAP2 PUSH2 0x100 EXP DUP2 SLOAD DUP2 PUSH20 0xFFFFFFFFFFFFFFFFFFFFFFFFFFFFFFFFFFFFFFFF MUL NOT AND SWAP1 DUP4 PUSH20 0xFFFFFFFFFFFFFFFFFFFFFFFFFFFFFFFFFFFFFFFF AND MUL OR SWAP1 SSTORE POP JUMP JUMPDEST PUSH1 0x1 DUP2 DUP2 SLOAD DUP2 LT PUSH2 0x45B JUMPI PUSH1 0x0 DUP1 REVERT JUMPDEST SWAP1 PUSH1 0x0 MSTORE PUSH1 0x20 PUSH1 0x0 KECCAK256 ADD PUSH1 0x0 SWAP2 POP SLOAD SWAP1 PUSH2 0x100 EXP SWAP1 DIV PUSH20 0xFFFFFFFFFFFFFFFFFFFFFFFFFFFFFFFFFFFFFFFF AND DUP2 JUMP JUMPDEST PUSH1 0x0 TIMESTAMP CALLER PUSH1 0x1 PUSH1 0x40 MLOAD PUSH1 0x20 ADD PUSH2 0x4A2 SWAP4 SWAP3 SWAP2 SWAP1 PUSH2 0x739 JUMP JUMPDEST PUSH1 0x40 MLOAD PUSH1 0x20 DUP2 DUP4 SUB SUB DUP2 MSTORE SWAP1 PUSH1 0x40 MSTORE DUP1 MLOAD SWAP1 PUSH1 0x20 ADD KECCAK256 PUSH1 0x0 SHR SWAP1 POP SWAP1 JUMP JUMPDEST DUP3 DUP1 SLOAD DUP3 DUP3 SSTORE SWAP1 PUSH1 0x0 MSTORE PUSH1 0x20 PUSH1 0x0 KECCAK256 SWAP1 DUP2 ADD SWAP3 DUP3 ISZERO PUSH2 0x539 JUMPI SWAP2 PUSH1 0x20 MUL DUP3 ADD JUMPDEST DUP3 DUP2 GT ISZERO PUSH2 0x538 JUMPI DUP3 MLOAD DUP3 PUSH1 0x0 PUSH2 0x100 EXP DUP2 SLOAD DUP2 PUSH20 0xFFFFFFFFFFFFFFFFFFFFFFFFFFFFFFFFFFFFFFFF MUL NOT AND SWAP1 DUP4 PUSH20 0xFFFFFFFFFFFFFFFFFFFFFFFFFFFFFFFFFFFFFFFF AND MUL OR SWAP1 SSTORE POP SWAP2 PUSH1 0x20 ADD SWAP2 SWAP1 PUSH1 0x1 ADD SWAP1 PUSH2 0x4E0 JUMP JUMPDEST JUMPDEST POP SWAP1 POP PUSH2 0x546 SWAP2 SWAP1 PUSH2 0x54A JUMP JUMPDEST POP SWAP1 JUMP JUMPDEST JUMPDEST DUP1 DUP3 GT ISZERO PUSH2 0x563 JUMPI PUSH1 0x0 DUP2 PUSH1 0x0 SWAP1 SSTORE POP PUSH1 0x1 ADD PUSH2 0x54B JUMP JUMPDEST POP SWAP1 JUMP JUMPDEST PUSH1 0x0 DUP2 CALLDATALOAD SWAP1 POP PUSH2 0x576 DUP2 PUSH2 0xA1A JUMP JUMPDEST SWAP3 SWAP2 POP POP JUMP JUMPDEST PUSH1 0x0 PUSH1 0x20 DUP3 DUP5 SUB SLT ISZERO PUSH2 0x58E JUMPI PUSH1 0x0 DUP1 REVERT JUMPDEST PUSH1 0x0 PUSH2 0x59C DUP5 DUP3 DUP6 ADD PUSH2 0x567 JUMP JUMPDEST SWAP2 POP POP SWAP3 SWAP2 POP POP JUMP JUMPDEST PUSH1 0x0 PUSH2 0x5B1 DUP4 DUP4 PUSH2 0x5D5 JUMP JUMPDEST PUSH1 0x20 DUP4 ADD SWAP1 POP SWAP3 SWAP2 POP POP JUMP JUMPDEST PUSH1 0x0 PUSH2 0x5C9 DUP4 DUP4 PUSH2 0x5F3 JUMP JUMPDEST PUSH1 0x20 DUP4 ADD SWAP1 POP SWAP3 SWAP2 POP POP JUMP JUMPDEST PUSH2 0x5DE DUP2 PUSH2 0x891 JUMP JUMPDEST DUP3 MSTORE POP POP JUMP JUMPDEST PUSH2 0x5ED DUP2 PUSH2 0x891 JUMP JUMPDEST DUP3 MSTORE POP POP JUMP JUMPDEST PUSH2 0x5FC DUP2 PUSH2 0x891 JUMP JUMPDEST DUP3 MSTORE POP POP JUMP JUMPDEST PUSH2 0x613 PUSH2 0x60E DUP3 PUSH2 0x891 JUMP JUMPDEST PUSH2 0x8E7 JUMP JUMPDEST DUP3 MSTORE POP POP JUMP JUMPDEST PUSH1 0x0 PUSH2 0x624 DUP3 PUSH2 0x814 JUMP JUMPDEST PUSH2 0x62E DUP2 DUP6 PUSH2 0x844 JUMP JUMPDEST SWAP4 POP PUSH2 0x639 DUP4 PUSH2 0x7EF JUMP JUMPDEST DUP1 PUSH1 0x0 JUMPDEST DUP4 DUP2 LT ISZERO PUSH2 0x66A JUMPI DUP2 MLOAD PUSH2 0x651 DUP9 DUP3 PUSH2 0x5A5 JUMP JUMPDEST SWAP8 POP PUSH2 0x65C DUP4 PUSH2 0x82A JUMP JUMPDEST SWAP3 POP POP PUSH1 0x1 DUP2 ADD SWAP1 POP PUSH2 0x63D JUMP JUMPDEST POP DUP6 SWAP4 POP POP POP POP SWAP3 SWAP2 POP POP JUMP JUMPDEST PUSH1 0x0 PUSH2 0x682 DUP3 PUSH2 0x81F JUMP JUMPDEST PUSH2 0x68C DUP2 DUP6 PUSH2 0x855 JUMP JUMPDEST SWAP4 POP PUSH2 0x697 DUP4 PUSH2 0x7FF JUMP JUMPDEST DUP1 PUSH1 0x0 JUMPDEST DUP4 DUP2 LT ISZERO PUSH2 0x6CF JUMPI PUSH2 0x6AC DUP3 PUSH2 0x975 JUMP JUMPDEST PUSH2 0x6B6 DUP9 DUP3 PUSH2 0x5BD JUMP JUMPDEST SWAP8 POP PUSH2 0x6C1 DUP4 PUSH2 0x837 JUMP JUMPDEST SWAP3 POP POP PUSH1 0x1 DUP2 ADD SWAP1 POP PUSH2 0x69B JUMP JUMPDEST POP DUP6 SWAP4 POP POP POP POP SWAP3 SWAP2 POP POP JUMP JUMPDEST PUSH1 0x0 PUSH2 0x6E9 PUSH1 0x25 DUP4 PUSH2 0x860 JUMP JUMPDEST SWAP2 POP PUSH2 0x6F4 DUP3 PUSH2 0x9A2 JUMP JUMPDEST PUSH1 0x40 DUP3 ADD SWAP1 POP SWAP2 SWAP1 POP JUMP JUMPDEST PUSH1 0x0 PUSH2 0x70C PUSH1 0x16 DUP4 PUSH2 0x860 JUMP JUMPDEST SWAP2 POP PUSH2 0x717 DUP3 PUSH2 0x9F1 JUMP JUMPDEST PUSH1 0x20 DUP3 ADD SWAP1 POP SWAP2 SWAP1 POP JUMP JUMPDEST PUSH2 0x733 PUSH2 0x72E DUP3 PUSH2 0x8C3 JUMP JUMPDEST PUSH2 0x90B JUMP JUMPDEST DUP3 MSTORE POP POP JUMP JUMPDEST PUSH1 0x0 PUSH2 0x745 DUP3 DUP7 PUSH2 0x722 JUMP JUMPDEST PUSH1 0x20 DUP3 ADD SWAP2 POP PUSH2 0x755 DUP3 DUP6 PUSH2 0x602 JUMP JUMPDEST PUSH1 0x14 DUP3 ADD SWAP2 POP PUSH2 0x765 DUP3 DUP5 PUSH2 0x677 JUMP JUMPDEST SWAP2 POP DUP2 SWAP1 POP SWAP5 SWAP4 POP POP POP POP JUMP JUMPDEST PUSH1 0x0 PUSH1 0x20 DUP3 ADD SWAP1 POP PUSH2 0x787 PUSH1 0x0 DUP4 ADD DUP5 PUSH2 0x5E4 JUMP JUMPDEST SWAP3 SWAP2 POP POP JUMP JUMPDEST PUSH1 0x0 PUSH1 0x20 DUP3 ADD SWAP1 POP DUP2 DUP2 SUB PUSH1 0x0 DUP4 ADD MSTORE PUSH2 0x7A7 DUP2 DUP5 PUSH2 0x619 JUMP JUMPDEST SWAP1 POP SWAP3 SWAP2 POP POP JUMP JUMPDEST PUSH1 0x0 PUSH1 0x20 DUP3 ADD SWAP1 POP DUP2 DUP2 SUB PUSH1 0x0 DUP4 ADD MSTORE PUSH2 0x7C8 DUP2 PUSH2 0x6DC JUMP JUMPDEST SWAP1 POP SWAP2 SWAP1 POP JUMP JUMPDEST PUSH1 0x0 PUSH1 0x20 DUP3 ADD SWAP1 POP DUP2 DUP2 SUB PUSH1 0x0 DUP4 ADD MSTORE PUSH2 0x7E8 DUP2 PUSH2 0x6FF JUMP JUMPDEST SWAP1 POP SWAP2 SWAP1 POP JUMP JUMPDEST PUSH1 0x0 DUP2 SWAP1 POP PUSH1 0x20 DUP3 ADD SWAP1 POP SWAP2 SWAP1 POP JUMP JUMPDEST PUSH1 0x0 DUP2 SWAP1 POP DUP2 PUSH1 0x0 MSTORE PUSH1 0x20 PUSH1 0x0 KECCAK256 SWAP1 POP SWAP2 SWAP1 POP JUMP JUMPDEST PUSH1 0x0 DUP2 MLOAD SWAP1 POP SWAP2 SWAP1 POP JUMP JUMPDEST PUSH1 0x0 DUP2 SLOAD SWAP1 POP SWAP2 SWAP1 POP JUMP JUMPDEST PUSH1 0x0 PUSH1 0x20 DUP3 ADD SWAP1 POP SWAP2 SWAP1 POP JUMP JUMPDEST PUSH1 0x0 PUSH1 0x1 DUP3 ADD SWAP1 POP SWAP2 SWAP1 POP JUMP JUMPDEST PUSH1 0x0 DUP3 DUP3 MSTORE PUSH1 0x20 DUP3 ADD SWAP1 POP SWAP3 SWAP2 POP POP JUMP JUMPDEST PUSH1 0x0 DUP2 SWAP1 POP SWAP3 SWAP2 POP POP JUMP JUMPDEST PUSH1 0x0 DUP3 DUP3 MSTORE PUSH1 0x20 DUP3 ADD SWAP1 POP SWAP3 SWAP2 POP POP JUMP JUMPDEST PUSH1 0x0 PUSH20 0xFFFFFFFFFFFFFFFFFFFFFFFFFFFFFFFFFFFFFFFF DUP3 AND SWAP1 POP SWAP2 SWAP1 POP JUMP JUMPDEST PUSH1 0x0 PUSH2 0x89C DUP3 PUSH2 0x8A3 JUMP JUMPDEST SWAP1 POP SWAP2 SWAP1 POP JUMP JUMPDEST PUSH1 0x0 PUSH20 0xFFFFFFFFFFFFFFFFFFFFFFFFFFFFFFFFFFFFFFFF DUP3 AND SWAP1 POP SWAP2 SWAP1 POP JUMP JUMPDEST PUSH1 0x0 DUP2 SWAP1 POP SWAP2 SWAP1 POP JUMP JUMPDEST PUSH1 0x0 PUSH2 0x8E0 PUSH2 0x8DB DUP4 PUSH2 0x995 JUMP JUMPDEST PUSH2 0x871 JUMP JUMPDEST SWAP1 POP SWAP2 SWAP1 POP JUMP JUMPDEST PUSH1 0x0 PUSH2 0x8F2 DUP3 PUSH2 0x8F9 JUMP JUMPDEST SWAP1 POP SWAP2 SWAP1 POP JUMP JUMPDEST PUSH1 0x0 PUSH2 0x904 DUP3 PUSH2 0x988 JUMP JUMPDEST SWAP1 POP SWAP2 SWAP1 POP JUMP JUMPDEST PUSH1 0x0 DUP2 SWAP1 POP SWAP2 SWAP1 POP JUMP JUMPDEST PUSH1 0x0 PUSH2 0x920 DUP3 PUSH2 0x8C3 JUMP JUMPDEST SWAP2 POP PUSH2 0x92B DUP4 PUSH2 0x8C3 JUMP JUMPDEST SWAP3 POP DUP3 PUSH2 0x93B JUMPI PUSH2 0x93A PUSH2 0x946 JUMP JUMPDEST JUMPDEST DUP3 DUP3 MOD SWAP1 POP SWAP3 SWAP2 POP POP JUMP JUMPDEST PUSH32 0x4E487B7100000000000000000000000000000000000000000000000000000000 PUSH1 0x0 MSTORE PUSH1 0x12 PUSH1 0x4 MSTORE PUSH1 0x24 PUSH1 0x0 REVERT JUMPDEST PUSH1 0x0 PUSH2 0x981 DUP3 SLOAD PUSH2 0x8CD JUMP JUMPDEST SWAP1 POP SWAP2 SWAP1 POP JUMP JUMPDEST PUSH1 0x0 DUP2 PUSH1 0x60 SHL SWAP1 POP SWAP2 SWAP1 POP JUMP JUMPDEST PUSH1 0x0 DUP2 PUSH1 0x0 SHR SWAP1 POP SWAP2 SWAP1 POP JUMP JUMPDEST PUSH32 0x56616C7565206D7573742062652067726561746572207468616E20302E312065 PUSH1 0x0 DUP3 ADD MSTORE PUSH32 0x746865722E000000000000000000000000000000000000000000000000000000 PUSH1 0x20 DUP3 ADD MSTORE POP JUMP JUMPDEST PUSH32 0x596F75206D7573742062652061206D616E616765722E00000000000000000000 PUSH1 0x0 DUP3 ADD MSTORE POP JUMP JUMPDEST PUSH2 0xA23 DUP2 PUSH2 0x8C3 JUMP JUMPDEST DUP2 EQ PUSH2 0xA2E JUMPI PUSH1 0x0 DUP1 REVERT JUMPDEST POP JUMP INVALID LOG2 PUSH5 0x6970667358 0x22 SLT KECCAK256 INVALID PUSH26 0xB4B208AFDCB7DA2613357A6F92E19A7955450CA0A21339CEBEFC CREATE ISZERO 0x28 OR PUSH5 0x736F6C6343 STOP ADDMOD MUL STOP CALLER "},"gasEstimates":{"creation":{"codeDepositCost":"532600","executionCost":"21434","totalCost":"554034"},"external":{"enter()":"41964","getPlayers()":"infinite","manager()":"1189","pickWinner()":"infinite","players(uint256)":"2422"},"internal":{"random()":"infinite"}},"methodIdentifiers":{"enter()":"e97dcb62","getPlayers()":"8b5b9ccc","manager()":"481c6a75","pickWinner()":"5d495aea","players(uint256)":"f71d96cb"}},"storageLayout":{"storage":[{"astId":3,"contract":"Lottery.sol:Lottery","label":"manager","offset":0,"slot":"0","type":"t_address"},{"astId":6,"contract":"Lottery.sol:Lottery","label":"players","offset":0,"slot":"1","type":"t_array(t_address)dyn_storage"}],"types":{"t_address":{"encoding":"inplace","label":"address","numberOfBytes":"20"},"t_array(t_address)dyn_storage":{"base":"t_address","encoding":"dynamic_array","label":"address[]","numberOfBytes":"32"}}},"userdoc":{"kind":"user","methods":{},"version":1}}